:020000040800F2
:1000000000001024ED310008652D00086D2D00085A
:10001000752D00087D2D0008852D000800000000CA
:100020000000000000000000000000008D2D00080E
:100030009B2D000800000000A92D0008B72D000826
:1000400041320008413200084132000841320008C4
:1000500041320008413200084132000841320008B4
:1000600041320008413200084132000841320008A4
:100070004132000841320008413200084132000894
:100080004132000841320008413200084132000884
:100090004132000841320008413200084132000874
:1000A0004132000841320008413200084132000864
:1000B0004132000841320008413200084132000854
:1000C0004132000841320008413200084132000844
:1000D000413200084132000841320008C52D0008B5
:1000E0004132000841320008413200084132000824
:1000F0004132000841320008413200084132000814
:100100004132000841320008413200084132000803
:1001100041320008413200084132000841320008F3
:1001200041320008413200084132000841320008E3
:1001300041320008000000000000000041320008C9
:1001400041320008413200084132000841320008C3
:1001500041320008413200084132000841320008B3
:1001600041320008413200084132000841320008A3
:10017000413200084132000841320008000000000E
:100180004132000841320008413200084132000883
:100190004132000841320008413200084132000873
:1001A0004132000841320008413200084132000863
:1001B0004132000841320008413200084132000853
:1001C0004132000841320008000000000000000039
:1001D00000000000000000004132000800000000A4
:1001E000000000000000000000000000000000000F
:1001F0000000000000000000413200084132000809
:10020000413200084132000800000000413200087D
:1002100041320008413200084132000841320008F2
:10022000413200084132000841320008000000005D
:10023000413200084132000800000000413200084D
:1002400041320008413200084132000841320008C2
:1002500041320008413200084132000841320008B2
:1002600041320008413200084132000841320008A2
:10027000413200084132000841320008000000000D
:1002800041320008413200080000000041320008FD
:100290000000000041320008413200080000000068
:0C02A0000000000041320008413200085C
:1002B00010B5054C237833B9044B13B10448AFF3A0
:1002C00000800123237010BD6C000024000000009A
:1002D000E0AA000808B5034B1BB103490348AFF37C
:1002E000008008BD0000000070000024E0AA0008A3
:1002F00001F0FF01102A2BDB10F0070F08D010F8D7
:10030000013B013A8B422DD010F0070F42B3F6D1DA
:10031000F0B441EA012141EA014122F007047FF0F3
:1003200000070023F0E80256083C85EA010586EA4A
:10033000010685FA47F5A3FA87F586FA47F6A5FA86
:1003400087F68EB9EED1F0BC01F0FF0102F0070292
:1003500032B110F8013B013A83EA010313B1F8D13D
:100360000020704701387047002D06BF354603381E
:10037000073815F0010F07D1013015F4807F02BF57
:10038000013015F4C03F0130F0BC0138704700BFA8
:1003900053B94AB9002908BF00281CBF4FF0FF31EC
:1003A0004FF0FF3000F06AB9ADF1080C6DE904CEF2
:1003B00000F006F8DDF804E0DDE9022304B0704740
:1003C0002DE9F047089D0C46002B4ED194468C45F4
:1003D0008646B2FA82F262D94AB1C2F12003914054
:1003E00020FA03F30CFA02FC194300FA02FE4FEA6A
:1003F0001C471FFA8CF6B1FBF7F44FEA1E4307FBCC
:10040000141143EA014304FB06F199420AD91CEB9B
:10041000030304F1FF3080F01281994240F20F8112
:10042000023C6344591A1FFA8EF3B1FBF7F007FB45
:10043000101143EA014300FB06F69E420AD91CEB69
:10044000030300F1FF3180F0FC809E4240F2F9800E
:10045000634402389B1B40EA044000211DB1D34095
:100460000022C5E90032BDE8F0878B4205D90DB105
:10047000C5E9000100210846F5E7B3FA83F1002938
:1004800046D1A34202D39042C0F0F080861A64EBBA
:1004900003030120002DE6D0C5E90063E3E7002A4D
:1004A00040F09080A1EB0C044FEA1C481FFA8CF737
:1004B0000121B4FBF8F64FEA1E4308FB164443EA59
:1004C000044307FB06F0984208D91CEB030306F12E
:1004D000FF3402D2984200F2CD8026461C1A1FFA41
:1004E0008EF3B4FBF8F008FB104443EA044300FB2E
:1004F00007F79F4208D91CEB030300F1FF3402D237
:100500009F4200F2B0802046DB1B40EA0640A5E790
:10051000C1F120068B4022FA06F71F4320FA06FCA1
:1005200004FA01F343EA0C03F44000FA01F8380C32
:100530004FEA1349B4FBF0FE1FFA87FC00FB1E4490
:1005400049EA04440EFB0CF9A14502FA01F20AD96A
:100550003C190EF1FF3A80F08480A14540F2818081
:10056000AEF1020E3C44A4EB09041FFA83F9B4FB7C
:10057000F0F300FB134449EA044403FB0CFCA445DC
:1005800007D93C1903F1FF3067D2A44565D9023B76
:100590003C4443EA0E40A0FB0293A4EB0C049C42B3
:1005A000CE469C4651D34ED055B1B8EB0E0364EB0A
:1005B0000C0404FA06F6CB401E43CC40C5E90064A7
:1005C000002150E7C2F1200320FA03F10CFA02FCEB
:1005D00024FA03F394400C434FEA1C4800FA02FE4D
:1005E0001FFA8CF7B3FBF8F008FB1031230C43EA39
:1005F000014300FB07F1994208D91CEB030300F10A
:10060000FF362CD299422AD9023863445B1AA4B22D
:10061000B3FBF8F108FB113344EA034401FB07F391
:10062000A34208D91CEB040401F1FF3613D2A34204
:1006300011D902396444E41A41EA004139E7044619
:10064000F0E6084606E7C845AED2B9EB020E63EB0A
:10065000070C0138A8E73146EDE7034699E7304635
:10066000D4E7D6467FE7634402384DE70646234683
:1006700008460FE7023E634430E700BF704700BF03
:1006800080B584B000AF78600B46FB70284B1A68C9
:10069000284B1B689A420FD2254B1B68264A1344ED
:1006A000FA781946786809F004FDFA78204B1B683F
:1006B00013441F4A136036E01D4B1A681D4B1B681C
:1006C0009A4230D91A4B1B68C3F57A73FB60FB78EA
:1006D000FA689A420FD3164B1B68174A1344FA78EC
:1006E0001946786809F0E5FCFA78114B1B68134449
:1006F0000F4A136017E00E4B1B680F4A1344FA6849
:100700001946786809F0D5FC7A68FB68D018FA7841
:10071000FB68D31A1A46084909F0CBFCFA78FB6843
:10072000D31A034A136000BF1037BD4680BD00BF17
:100730008C000024880000249000002480B584B040
:1007400000AF78600B46FB70FA78264B1B681344A9
:10075000B3F57A7F1AD2FA78224B1B681A44224BDF
:100760001B689A4201D1002337E01E4B1B681F4AC9
:100770001344FA787968184609F09BFCFA78194B0B
:100780001B681344174A1360012326E0154B1B68AE
:10079000C3F57A73FB60FA78FB68D21A124B1B68B8
:1007A0009A4219D20F4B1B68104A1344FA687968B1
:1007B000184609F07EFC7A68FB68D118FA78FB6865
:1007C000D31A1A46094809F074FCFA78FB68D31A60
:1007D000044A1360012300E0002318461037BD4689
:1007E00080BD00BF880000248C00002490000024FD
:1007F00080B58AB000AF07F1140300221A605A6076
:100800009A60DA601A61294BD3F84031274A43F0E5
:100810000403C2F84031254BD3F8403103F0040300
:100820003B613B69214BD3F84031204A43F08003C0
:10083000C2F840311D4BD3F8403103F08003FB6018
:10084000FB681A4BD3F84031184A43F00203C2F850
:100850004031164BD3F8403103F00203BB60BB6854
:10086000124BD3F84031114A43F00803C2F840312B
:100870000E4BD3F8403103F008037B607B68002205
:1008800001210B4803F030FE01237B610123BB6192
:100890000023FB6100233B6207F11403194604485F
:1008A00003F072FC00BF2837BD4680BD00440258EB
:1008B0000004025880B582B000AF7860391D4FF651
:1008C000FF730122034806F071FC7B681846083765
:1008D000BD4680BDA804002480B586B000AF0221CB
:1008E0000F48FFF7CDFE00237B613B1D02220C4920
:1008F000184600F029FD07F114023B1D094918466E
:1009000001F05CFE03461A46074B1A70074B1B6842
:10091000013B064A13607B6918461837BD4680BD07
:1009200078040024E4AC0008990400249C0400240A
:1009300080B582B000AF78600E4B1B7883F0010366
:10094000DBB2002B11D17B68012B05D101220121E3
:10095000094803F0C9FD09E07B68002B06D100229D
:100960000121054803F0C0FD00E000BF0837BD4687
:1009700080BD00BF990400240004025880B582B0F5
:1009800000AF78607B681B68364A934265D1364B6E
:100990001B78DBB2FF2B03D1344B01221A7056E0D7
:1009A000324B1B78DBB2012B11D12F4B1B78DBB202
:1009B000082B0CD12D4B1B78DBB2013B2A4A127855
:1009C000D1B22B4AD154294B02221A703FE0274B57
:1009D0001B78DBB2012B3AD9244B1B78DBB2022BFC
:1009E00010D0224B1B78DBB2013B1F4A1278D1B2E8
:1009F0001F4AD1541D4B1B78DBB20133DAB21B4BBB
:100A00001A7024E0194B1B78DBB2013B164A1278AE
:100A1000D1B2174AD154154B00221A7008E0FFF7E3
:100A20005BFF03461846FFF783FF124809F0E6F91B
:100A300002210F48FFF782FE034683F00103DBB279
:100A4000002BECD10C4B1B6801330B4A13600122C5
:100A500005490A4806F038FC00E000BF0837BD46EB
:100A600080BD00BF0048004098040024A00400247A
:100A700078040024F8AA00089C040024A804002498
:100A800080B500AF00F0AEF802F0DCFB00F036F805
:100A9000FFF7AEFE02F0ECFA01220121124803F04A
:100AA00023FD4FF47A7002F05FFC002201210E4812
:100AB00003F01AFD4FF47A7002F056FC01220B4944
:100AC0000B4806F001FC0B4B1B6819460A4809F05D
:100AD0002DF9084B1B68002BF5D0FFF7FDFE0346F0
:100AE0001846FFF725FFEEE700040258980400249B
:100AF000A80400249C04002408AB000880B59CB026
:100B000000AF07F124034C220021184609F056FAE1
:100B10003B1D20220021184609F050FA2F4B4FF0C0
:100B2000FF32C3F8B020042003F0F8FC00233B6040
:100B30002B4B9B692A4A43F440439361284B9B69A2
:100B400003F440433B603B6800BF254B9B6903F4C3
:100B50000053B3F5005FF8D102237B6201233B63AE
:100B600040237B630223BB640023FB6404233B65B7
:100B700008237B650223BB650423FB6502233B66D8
:100B80000C237B660023BB660023FB6607F124036E
:100B9000184603F01DFD0346002B01D000F04EF86F
:100BA0003F237B600323BB600023FB6000233B618A
:100BB00000237B610023BB610023FB6100233B62B8
:100BC0003B1D0121184604F035F90346002B01D0E6
:100BD00000F034F800BF7037BD4680BD00440258B5
:100BE0000048025880B584B000AF3B4600221A602E
:100BF0005A609A60DA6002F0EBFC01233B7000233C
:100C00007B7000237B601F233B7287237B72002352
:100C1000BB720023FB7201233B7301237B73002310
:100C2000BB730023FB733B46184602F009FD04200A
:100C300002F0E6FC00BF1037BD4680BD80B400AFB7
:100C400072B600BF00BFFDE780B48FB000AF786020
:100C50007B681A897B681B681B8A9A4201D3002330
:100C600056E17B681B681A687B685B899B001344AC
:100C70001B68FB62FB6A1B0ADAB27B689A75FB6A27
:100C800003F00303022B5AD0022B00F29480002BB6
:100C900002D0012B1FD08EE07B6801229A82FB6A72
:100CA0009B089BB203F03F039AB27B681A82FB6AEF
:100CB0001B0E5BB203F00F0387F83330FB6A1B0C8B
:100CC000DBB27B63FB6A1B0F9BB203F00F039AB28C
:100CD0007B685A82B4E07B681B681A687B685B8912
:100CE00001339B0013441B68FB61FB6A1B0C9BB226
:100CF000C3F30B039AB27B689A82FB6A9B089BB290
:100D000003F03F039AB2FB691B0F9BB29B019BB29E
:100D100013439AB27B681A82FB6A1B0F5BB203F023
:100D20000F0387F83330FB699BB27B63FB691B0CB5
:100D30009BB2C3F30B039AB27B685A8280E07B6854
:100D40001B681A687B685B8901339B0013441B682E
:100D5000BB627B681B681A687B685B8902339B00F7
:100D600013441B687B627B681B681A687B685B891D
:100D700003339B0013441B683B62FB6A1B0C9AB253
:100D80007B689A82FB6A9B089BB203F03F039AB28E
:100D9000BB6A1B0A9BB29B019BB213439AB27B684E
:100DA0001A82BB6A87F833307B6A7B633B6A9AB2EC
:100DB0007B685A8244E07B681B681A687B685B89A1
:100DC00001339B0013441B68BB617B681B681A6876
:100DD0007B685B8902339B0013441B687B617B68E3
:100DE0001B681A687B685B8903339B0013441B688C
:100DF0003B617B681B681A687B685B8904339B00D6
:100E000013441B68FB60FB689AB27B689A82FB6A9A
:100E10009B089BB203F03F039AB2BB691B0A9BB2CB
:100E20009B019BB213439AB27B681A82BB6987F815
:100E300033307B697B633B699AB27B685A8200BF1F
:100E40007B685B68002B06D17B6800229A617B6817
:100E500000221A6241E07B685A687B6B1A447B6807
:100E60009A6197F93330002B08D07B689A6997F91B
:100E700033305B421A447B681A621AE07B689B7DC0
:100E800003F03003202B11D17B689B7D03F0C0035E
:100E9000002B05D07B689B7D03F0C003802B05D120
:100EA0007B6803F114027B681A6202E07B6800220F
:100EB0001A627B689B7D03F0C003802B09D17B689D
:100EC0009B69002B05D07B689B691A687B68DA6197
:100ED00003E07B689A697B68DA617B689B7D03F03D
:100EE0000F03082B05D07B689B7D03F00F03092BB4
:100EF0000AD17B681B685A687B68DB899B001344B6
:100F00001A687B685A6202E07B6800225A620123F9
:100F100018463C37BD465DF8047B704780B485B009
:100F200000AF78607B681B8901339AB27B681A81B5
:100F30007B681A897B681B681B8A9A420CD37B6882
:100F400000221A817B6800225A817B680022DA81A4
:100F50007B6800229A813BE07B681B681A687B688B
:100F60005B899B0013441B68FB60FB681B0AFB72D8
:100F7000FB6803F00303012202FA03F33B817B6861
:100F80005A893B8913449AB27B685A817B689B8952
:100F9000FA7A02F03002002A0CBF01220022D2B2FB
:100FA00013449AB27B689A817B68DA89FB7A03F0F2
:100FB0000F03082B04D0FB7A03F00F03092B01D198
:100FC000012300E000239BB213449AB27B68DA81CC
:100FD00000BF1437BD465DF8047B704780B584B010
:100FE00000AFF860B9607A6028220021F86808F044
:100FF000E5FFFB68BA681A60FB687A685A60F868AF
:10100000FFF722FE034618461037BD4680BD80B567
:1010100086B000AF786039603B681B689B683B61B5
:101020003B691B681B68FB60FB681B0A03F0C0037D
:10103000802B09D13B6804331A4639697868FFF779
:10104000CDFF0346FB7508E03B685B681A463969CB
:101050007868FFF7C3FF0346FB753B6803F10C029A
:101060007B681A62FB7D18461837BD4680BD80B587
:1010700082B000AF78607868FFF750FF7868FFF7BC
:10108000E3FD7B681B89002B14BF01230023DBB227
:1010900018460837BD4680BD80B584B000AF786083
:1010A00039607B681B8A1A463B68934201D1012351
:1010B00044E07B681B689B8A1A463B68934201D9CF
:1010C00000233BE07B681B89FB817B681B8A1A46F7
:1010D0003B68934204D27B681B681A8A7B681A813A
:1010E0007868FFF71BFF7B681B681A687B685B8961
:1010F0009B0013441B68BB60BB689A083B68534065
:1011000003F03F03002B10D17868FFF79DFD7B684B
:101110001B8A1A463B68934207D17B689B7D03F08C
:101120000F030A2B01D0012308E07B681B89FA8991
:101130009A42D5D17868FFF787FD0023184610370B
:10114000BD4680BD80B584B000AF78607B689B7D74
:1011500003F00F030A2B01D1012322E07B681B89D6
:10116000FB817868FFF7DAFE7B681B681A687B688A
:101170005B899B0013441B68BB60BB681B0A03F0C0
:101180000F030A2B04D17868FFF75EFD034608E0E1
:101190007B681B89FA899A42E3D17868FFF754FD8E
:1011A000002318461037BD4680BD80B586B000AF1D
:1011B000F860B9607A60FB685B687B61FB685A68BD
:1011C0007B681A44FB685A60BB68002B04D07A68BD
:1011D0007969B86808F06DFF012318461837BD46D5
:1011E00080BD000080B588B000AFF860B9607A605B
:1011F0007B68002B01D101235FE0BB68002B23D16A
:10120000FB681B682F4A93421ED011E007F11003C0
:1012100010221946F868FFF7E5FF034683F0010343
:10122000DBB2002B01D0002347E07B68103B7B60E2
:101230007B68102BEAD807F110037A681946F86822
:10124000FFF7D0FF034638E0FB689B687A689A4254
:101250000BD9FB68DB68002B02D0FB68DB6800E081
:10126000194BFA68D360002327E0FB681B687A6893
:10127000B968F8689847034683F00103DBB2002B96
:101280000BD0FB68DB68002B02D0FB68DB6800E05A
:101290000E4BFA68D36000230FE0FB689B687A6806
:1012A0009A4203D9FB6800229A6005E0FB689A68BD
:1012B0007B68D21AFB689A60012318462037BD4626
:1012C00080BD00BFAB1100081CAB00082CAB0008B0
:1012D00080B582B000AF786039607B689B68002B76
:1012E0000BD17B68DB68002B02D07B68DB6800E0F9
:1012F000134B7A68D36000231DE07B681B680122D2
:10130000396878689847034683F00103DBB2002B05
:101310000BD07B68DB68002B02D07B68DB6800E0C9
:10132000084B7A68D360002305E07B689B685A1EEF
:101330007B689A60012318460837BD4680BD00BF10
:101340001CAB00082CAB000890B48AB000AFF8606A
:10135000B9607A600A4BBB61BB687B617B69FB61EA
:101360007B683B6200237B62FB681C4607F1180325
:101370000FCB84E80F00F8682837BD4690BC704753
:10138000AB11000880B588B000AFF860B9607A6032
:1013900007F115031946F868FFF79AFF034683F033
:1013A0000103DBB2002B0BD0FB689B68002B05D13F
:1013B0007B68002B02D07B6801221A70002384E036
:1013C0007B7D5BB2002B02DB7B7DFB6179E0072339
:1013D000BB617B7D03F07F03FB6107F115031946B9
:1013E000F868FFF775FF034683F00103DBB2002BBB
:1013F00001D0002369E0BB691F2B2FD9BB693E2BAD
:1014000001D8FF2300E00123FB757B7D03F07F0300
:10141000002B06D0FB69002B05DA7B7DFA7D9A4212
:1014200001D1012300E00023BB75BB7D03F0010364
:10143000BB75BB693F2B05D8BB7D83F00103DBB2D5
:10144000002B37D0FB68DB68002B02D0FB68DB6821
:1014500000E0204BFA68D360002336E0BB691C2B08
:101460001FD17B7D03F07003002B10D07B7D03F038
:101470007803782B0BD0FB68DB68002B02D0FB686D
:10148000DB6800E0134BFA68D36000231DE07B7D2E
:1014900003F00F02BB6902FA03F3FA691343FB611D
:1014A00008E07B7D03F07F02BB6902FA03F3FA696F
:1014B0001343FB61BB690733BB617B7D5BB2002BD0
:1014C0008BDBBB68FA691A60012318462037BD46DA
:1014D00080BD00BF38AB000880B582B000AF786037
:1014E0003960002239687868FFF74CFF03461846D8
:1014F0000837BD4680BD00002DE9B04F8AB000AF6F
:10150000F860B96000237B624FF000024FF00003E7
:10151000C7E9062307F117031946F868FFF7D8FE55
:10152000034683F00103DBB2002B01D0002341E02E
:101530007B6A3E2B10D9FB7D03F0FE03002B0BD002
:10154000FB68DB68002B02D0FB68DB6800E01C4B0B
:10155000FA68D36000232DE0FB7DDBB200223B6004
:101560007A603B6803F07F084FF000097B6AA3F1C3
:101570002001C3F1200209FA03F508FA01F10D4335
:1015800028FA02F2154308FA03F4D7E9062342EADF
:10159000040A43EA050BC7E906AB7B6A07337B62A3
:1015A000FB7D5BB2002BB5DBB968D7E90623C1E947
:1015B0000023012318462837BD46BDE8B08F00BF81
:1015C00038AB000880B584B000AF786007F10F0336
:1015D000012219467868FFF705FE034683F00103F0
:1015E000DBB2002B01D0002304E0FB7B5BB2002BBD
:1015F000ECDB012318461037BD4680BD80B584B0B2
:1016000000AF786007F10C0319467868FFF764FFB4
:10161000034683F00103DBB2002B01D0002306E078
:10162000FB681A4600217868FFF7DCFD0346184680
:101630001037BD4680BD80B586B000AFF860B96098
:101640007A603B603B6800221A70BB6800221A7007
:101650007B6800221A6007F114033A681946F8689B
:10166000FFF790FE034683F00103DBB2002B01D0AD
:1016700000230BE07B69DA087B681A607B69DBB2C8
:1016800003F00703DAB2BB681A7001231846183753
:10169000BD4680BD80B582B000AF78600B46FB7060
:1016A000FB78052B26D801A252F823F0C5160008B6
:1016B000CF160008DD160008F5160008F51600081C
:1016C000E71600087868FFF77DFF03461DE0082253
:1016D00000217868FFF786FD034616E07868FFF77B
:1016E0008DFF034611E0042200217868FFF77AFDA0
:1016F00003460AE07B68DB68002B02D07B68DB686E
:1017000000E0044B7A68D360002318460837BD46D2
:1017100080BD00BF48AB000880B586B000AFF86060
:101720007A603B600B46FB723B681B687B61FB7A0F
:10173000052B3FD0052B47DC002B02D0012B2FD0EF
:1017400042E03B6800221A603B681B685A1C3B68F9
:101750001A603B681B687A699A420BD2FB68DB68A7
:10176000002B02D0FB68DB6800E01F4BFA68D360F7
:10177000002334E001227968F868FFF733FD03465F
:1017800083F00103DBB2002B01D0002327E07B684C
:101790005A1C7A601B785BB2002BD5DB01231EE05C
:1017A0003B6808221A6008227968F868FFF71AFD7A
:1017B000034614E03B6804221A6004227968F86842
:1017C000FFF710FD03460AE0FB68DB68002B02D040
:1017D000FB68DB6800E0054BFA68D360002318461D
:1017E0001837BD4680BD00BF38AB000848AB0008C5
:1017F00090B585B000AF7860396007F10C031946E9
:101800007868FFF769FE034683F00103DBB2002B23
:1018100001D0002320E03A687B6814460FCB84E8AF
:101820000F003B689A68FB689A420BD27B68DB68C2
:10183000002B02D07B68DB6800E0094B7A68D3603C
:10184000002309E0FA683B689A607B689A68FB6845
:10185000D21A7B689A60012318461437BD4690BDA2
:101860005CAB000880B582B000AF786039603B683F
:101870009B68002B0ED03B689B681A460021386895
:10188000FFF7B0FC034683F00103DBB2002B01D06D
:10189000002308E03B685A687B685A603B68DA6856
:1018A0007B68DA60012318460837BD4680BD00001A
:1018B00080B584B000AFF8600B467A60FB727B683D
:1018C0009B7D03F00F030B2B00F2D48001A252F892
:1018D00023F000BF05190008351900083519000864
:1018E000351900086519000899190008CD19000874
:1018F000F7190008211A0008211A0008751A0008B3
:101900004B1A0008FB7A002B0ED0FB7AFF2B0BD072
:10191000FB68DB68002B02D0FB68DB6800E05D4BF6
:10192000FA68D3600023B0E07968F86800F0F6FE4A
:101930000346AAE0FB7A002B0ED0FB7AFF2B0BD0DC
:10194000FB68DB68002B02D0FB68DB6800E0514BD2
:10195000FA68D360002398E07968F86800F0EEFE3A
:10196000034692E0FB7A052B0ED0FB7AFF2B0BD0BF
:10197000FB68DB68002B02D0FB68DB6800E0454BAE
:10198000FA68D360002380E07B68DB691946F86859
:1019900000F08AFE034678E0FB7A012B0ED0FB7A3A
:1019A000FF2B0BD0FB68DB68002B02D0FB68DB68E9
:1019B00000E0384BFA68D360002366E07B68DB699F
:1019C0001946F86800F08CFE03465EE0FB7A022BB5
:1019D0000BD0FB68DB68002B02D0FB68DB6800E003
:1019E0002C4BFA68D36000234FE07968F86800F068
:1019F000D1FF034649E0FB7A022B0BD0FB68DB6882
:101A0000002B02D0FB68DB6800E0224BFA68D36051
:101A100000233AE07968F86801F030F8034634E0D2
:101A2000FB7A022B0BD0FB68DB68002B02D0FB6833
:101A3000DB6800E0174BFA68D360002325E0796883
:101A4000F86801F097F803461FE0FB7A022B0BD0F1
:101A5000FB68DB68002B02D0FB68DB6800E00D4B05
:101A6000FA68D360002310E07968F86801F00CF997
:101A700003460AE0FB68DB68002B02D0FB68DB68EA
:101A800000E0054BFA68D360002318461037BD46C6
:101A900080BD00BF74AB000884AB000880B596B071
:101AA00000AFF8600B467A60FB727B689B7D03F0A9
:101AB0003003302B00F0C280302B00F21A81202B33
:101AC0001FD0202B00F21581002B02D0102B08D044
:101AD0000FE1FB7A7A681946F868FFF7E9FE0346DA
:101AE00012E17B681B6A002B03D07B681B6A012212
:101AF0001A70FB7A7A681946F868FFF7D9FE034630
:101B000002E1FB7A022B6CD17B689B7D03F00F0313
:101B1000052B66D8012387F857307B681B6A3B6525
:101B20007B689B697A68528A11463A6D128801FB7C
:101B300002F21A447B68DA6107F13C031946F8683F
:101B4000FFF756FE034683F00103DBB2002B1FD0E4
:101B50000023D9E007F13C037A68FF211846FFF71C
:101B6000A7FE034683F00103DBB2002B03D0002362
:101B700087F8573015E03B6D1B8801339AB23B6DF7
:101B80001A807B68DB697A68528A1A447B68DA615A
:101B90007B6C002B05D03B6D1A887B689B8A9A4230
:101BA000D8D37B6C002B0BD0FB68DB68002B02D0FA
:101BB000FB68DB6800E0564BFA68D3600023A3E0C3
:101BC00007F13C031946F868FFF74CFE034683F023
:101BD0000103DBB2002B01D0002395E097F85730CA
:101BE00092E07B681B6AFB647B689B697A68528A17
:101BF0001146FA6C128801FB02F21A447B68DA6122
:101C0000FB6C1B885A1C91B2FA6C11807A68928A1C
:101C100093420BD3FB68DB68002B02D0FB68DB68C8
:101C200000E03B4BFA68D36000236DE0FB7A7A68F2
:101C30001946F868FFF73CFE034665E07B689B7D2C
:101C400003F00F03082B05D07B689B7D03F00F0387
:101C5000092B41D17B681B6A1A887B681B8A9A42D0
:101C60003AD07B68D8697B685B8A1A46002108F005
:101C7000A5F97B685B6A9B68002B0AD17B685B6A6D
:101C8000DB68002B05D17B685B6A5B681B68002BF7
:101C900022D07B68596A7B68DA6907F11403184619
:101CA000FFF79CF90346002B16D007F114031846E2
:101CB00000F04DFA034683F00103DBB2002B0BD09A
:101CC000FB68DB68002B02D0FB68DB6800E0114B8F
:101CD000FA68D360002317E07B681B6A7A68128A6F
:101CE0001A80FB7A7A681946F868FFF7E1FD034627
:101CF0000AE0FB68DB68002B02D0FB68DB6800E0D1
:101D0000054BFA68D360002318465837BD4680BD9E
:101D100098AB0008A8AB000884AB000880B485B07D
:101D200000AFF8600B467A60FB72FB68DB68002B43
:101D300002D0FB68DB6800E0044BFA68D360002344
:101D400018461437BD465DF8047B7047C0AB0008E9
:101D500090B597B000AFF8610B467A61FB767B696E
:101D60001B68DB68002B06D1FB7E1946F869FFF77C
:101D700091FC034670E0FB7E022B45D107F1440342
:101D80001946F869FFF734FD034683F00103DBB21F
:101D9000002B01D000235FE0FB6C7B657B691B6837
:101DA000DB6807F144007A6900219847034683F015
:101DB0000103DBB2002B10D0FB69DB68002B02D0E3
:101DC000FB69DB6805E03B6D002B01D03B6D00E05B
:101DD000234BFA69D36000233EE0FB6C002B03D059
:101DE000FB6C7A6D9A42D7D807F144031946F8691B
:101DF000FFF738FD034683F00103DBB2002B01D06F
:101E0000002329E0012327E00A237B6207F1240352
:101E100007F12802F97EF869FFF77EFC034683F09C
:101E20000103DBB2002B01D0002315E07A6A3B46A8
:101E300007F128011846FFF787FA07F134043B46FB
:101E40000FCB84E80F007B691B68DB6807F1340067
:101E50007A6900219847034618465C37BD4690BD15
:101E6000D4AB000880B584B000AFF8600B467A6050
:101E7000FB727B689B7D03F0C003802B0ED0802B10
:101E80001CD8002B02D0402B10D017E0FB7A7A68C8
:101E90001946F868FFF702FE03461AE0FB7A7A68F3
:101EA0001946F868FFF73AFF034612E0FB7A7A68B2
:101EB0001946F868FFF74CFF03460AE0FB68DB6849
:101EC000002B02D0FB68DB6800E0044BFA68D360AB
:101ED000002318461037BD4680BD00BF84AB000804
:101EE00080B58EB000AFF860B9607A60FB7007F122
:101EF0001003B9681846FFF78AF8034683F0010318
:101F0000DBB2002B0BD0FB68DB68002B02D0FB6838
:101F1000DB6800E00E4BFA68D360002314E03B8CD2
:101F20001A467B68934202D17B69002B01D10123C1
:101F30000AE0BB6801221A7307F11002FB78194608
:101F4000F868FFF78FFF034618463837BD4680BD57
:101F5000E4AB000890B587B000AFF860B9603B60B3
:101F60001346FB71FB689B683B6122E03B681B6882
:101F70001B68002B0AD03B681B681C68FB79BA6899
:101F80003968F868A0470346FB7507E0FB79BA6833
:101F90003968F868FFF7A4FF0346FB75FB7D83F003
:101FA0000103DBB2002B01D000230BE03B689B68F0
:101FB0003B603B68002B04D0FB689B683A699A42FF
:101FC000D4D0012318461C37BD4690BD80B58EB0D5
:101FD00000AF78607B689B7D87F8323097F83230AD
:101FE00003F00F030A2B24D17B68DB691B687B633A
:101FF0001BE007F10803796B1846FFF708F8034662
:10200000002B0FD07B6B00221A7307F108031846D0
:1020100000F09DF8034683F00103DBB2002B01D0F2
:10202000002390E07B6B9B687B637B6B002BE0D194
:1020300088E097F8323003F0C003002B66D101230B
:1020400087F8333097F8323003F03003102B08D183
:102050007B681B6A002B04D07B681B6A00221A7005
:1020600012E097F8323003F03003202B05D097F8B8
:10207000323003F03003302B06D17B681B6A00221C
:102080001A80002387F8333097F83330002B59D06B
:102090007B689B7D03F00F03082B05D07B689B7D3D
:1020A00003F00F03092B28D17B685B6A9B68002B28
:1020B0000AD17B685B6ADB68002B05D17B685B6AB1
:1020C0005B681B68002B18D07B68596A7B68DA69EB
:1020D00007F108031846FEF781FF0346002B30D0B6
:1020E00007F10803184600F032F8034683F00103B5
:1020F000DBB2002B25D0002325E07B68D8697B6804
:102100005B8A1A46002107F059FF1BE097F832302E
:1021100003F0C003802B15D17B689B6900221A60F5
:1021200097F8323003F03003202B05D097F8323087
:1021300003F03003302B05D17B681B6A00221A8024
:1021400000E000BF012318463837BD4680BD90B57A
:102150008DB000AF786107F1200300221A605A6049
:102160009A60DA600023FB610023FB767B691B68C1
:102170009B68002B20D07B691B6899683B464FF019
:10218000FF321846FFF7E0F807F120043B460FCB7B
:1021900084E80F0007F11A0307F11C0207F11B0185
:1021A00007F12000FFF747FA034683F00103DBB293
:1021B000002B01D0002343E07869FFF707FF0346B7
:1021C00083F00103DBB2002B01D0002338E0FB6970
:1021D000002B2ED07B691B8A1A46FB699A4228D1B4
:1021E000F97E07F120037A691846FFF73BFE0346A4
:1021F00083F00103DBB2002B01D0002320E007F1C4
:102200001A0307F11C0207F11B0107F12000FFF779
:1022100012FA034683F00103DBB2002B01D0002346
:102220000EE07B691B6A002B03D07B691B6A0022CE
:102230001A707869FEF71BFF0346002BBCD10123FF
:1022400018463437BD4690BD80B59AB000AFF860EF
:10225000B9607A603B6000237B6600233B664FF6E3
:10226000FF73A7F85E300023A7F84A300023A7F8D1
:102270005C3000233B6400237B644FF0FF337B65BD
:1022800007F118037A68B9681846FEF7A7FE0346F7
:10229000002B00F002813B6803F00103002B40F0AB
:1022A000FC8007F118031846FFF751FF034683F03F
:1022B0000103DBB2002B00F0F080FB68DB68002B31
:1022C00002D0FB68DB6800E0994BFA68D36000231A
:1022D0006DE107F1120307F1140207F11301F86829
:1022E000FFF7A9F9034683F00103DBB2002B05D009
:1022F000BB7C002B40F0D780002358E17B69002B8A
:1023000011D13B6803F00403002B40F0CE80FB6842
:10231000DB68002B02D0FB68DB6800E0854BFA68C5
:10232000D360002343E17A6907F118031146184688
:10233000FEF7B2FE034683F00103DBB2002B05D1AA
:1023400097F82E3003F00F030A2B3CD17B6E002B45
:1023500012D107F118031846FEF7F4FE0346002BCE
:1023600004D07B6B1B683B663B8D7B663B6E002B12
:1023700002D14FF0FF337B667B697A6E9A4215D8A3
:10238000FB689B68FB647969FA7C3B6EF868FFF731
:10239000E1FD034683F00103DBB2002B01D00023F3
:1023A00005E1FB689B68FA6C9A4273D1FB7C194685
:1023B000F868FFF76FF9034683F00103DBB2002BE7
:1023C0006AD00023F3E097F82E3003F03003202B7F
:1023D0002ED1BA6B07F1180314339A4228D13B8CE3
:1023E000B7F85E209A4220D0B7F85E304FF6FF7201
:1023F000934211D0B7F84A30B7F85C209A420BD01C
:10240000FB68DB68002B02D0FB68DB6800E04A4B0E
:10241000FA68D3600023CAE03B8CA7F85E30002343
:10242000A7F84A30BB8DA7F85C3007F14A03BB63BD
:1024300097F82E3003F03003002B1CD1BB8C3F2BC0
:1024400019D8BB8C03F01F03012202FA03F33B658A
:10245000BB8C5B099BB29B0068333B4453F8282C30
:10246000BB8C5B099BB219463B6D1A438B006833EA
:102470003B4443F8282CFB7C07F118021946F86806
:10248000FFF7F0FC034683F00103DBB2002B04D01E
:1024900000238CE000BF00E000BFFB689B68002BBE
:1024A0007FF417AF02E000BF00E000BFB7F85E3076
:1024B0004FF6FF72934211D0B7F84A30B7F85C205C
:1024C0009A420BD0FB68DB68002B02D0FB68DB680C
:1024D00000E0194BFA68D360002368E0BB695B8AAF
:1024E000A7F85A30B7F85A30002B5FD0B7F85A30F7
:1024F000402B02D94023A7F85A300023A7F85830C0
:1025000023E0B7F858309B0068333B4453F8283C2D
:102510007A6D9A4214D0FB68DB68002B02D0FB680E
:10252000DB6800E0054BFA68D36000233FE000BFA2
:10253000A8AB0008F8AB000804AC000828AC000801
:10254000B7F858300133A7F85830B7F85A305B095C
:102550009BB2B7F858209A42D3D3B7F85A3003F059
:102560001F03002B22D0B7F85A305B099BB29B00A7
:1025700068333B4453F8282CB7F85A30DBB203F0E9
:102580001F03DBB2C3F12003DBB219467B6DCB40E6
:102590009A420BD0FB68DB68002B02D0FB68DB683B
:1025A00000E0054BFA68D360002300E001231846E1
:1025B0006837BD4680BD00BF28AC000880B586B036
:1025C00000AFF860B9607A6000237A68B968F8688B
:1025D000FFF73AFE0346FB75FB7D18461837BD46EC
:1025E00080BD80B584B000AF7860396007F10C031E
:1025F00019467868FEF770FF034683F00103DBB2EB
:10260000002B01D0002308E0FB68002B14BF01233E
:102610000023DAB23B681A70012318461037BD4612
:1026200080BD2DE9B04384B000AF7860396007F118
:10263000080319467868FEF75FFF034683F001033D
:10264000DBB2002B01D0002329E0D7E9022302F0FE
:102650000104002554EA050313D0D7E902014FF025
:1026600000024FF00003420842EAC1724B086FEAD1
:1026700002086FEA030942464B463968C1E9002364
:102680000CE0D7E902014FF000024FF000034208CE
:1026900042EAC1724B083968C1E900230123184698
:1026A0001037BD46BDE8B08380B584B000AF786018
:1026B000396007F10C03042219467868FEF792FD91
:1026C000034683F00103DBB2002B01D0002303E0BB
:1026D000FA683B681A60012318461037BD4680BD72
:1026E00080B584B000AF7860396007F10803082234
:1026F00019467868FEF776FD034683F00103DBB2E6
:10270000002B01D0002305E0D7E902233968C1E995
:102710000023012318461037BD4680BD80B582B026
:1027200000AF786039603B68DB6919467868FFF76D
:1027300058FF034618460837BD4680BD2DE9B04F07
:1027400094B000AF786239623B6A9B7D03F00F035F
:10275000022B79D107F138031946786AFEF7CCFECF
:10276000034683F00103DBB2002B01D0002307E115
:102770003B6A5B8A082B0AD13B6AD969D7E90E23E9
:10278000C1E90023D1E90023C7E9122346E03B6AEF
:102790005B8A042B0ED1D7E90E013B6ADB69024646
:1027A0001A601B6800223B617A61D7E90434C7E9EB
:1027B000123433E03B6A5B8A022B0FD1D7E90E015A
:1027C0003B6ADB6982B21A801B889BB20022BB6025
:1027D000FA60D7E90234C7E912341FE03B6A5B8A2A
:1027E000012B0FD1D7E90E013B6ADB69C2B21A7027
:1027F0001B78DBB200223B607A60D7E90034C7E97E
:1028000012340BE07B6ADB68002B02D07B6ADB684A
:1028100000E05E4B7A6AD3600023B1E0D7E90E2373
:10282000D7E91201994208BF90420BD07B6ADB685E
:10283000002B02D07B6ADB6800E0554B7A6AD360DC
:1028400000239DE001239BE03B6A9B7D03F00F0387
:10285000032B0DD107F128031946786AFFF7E1FE33
:10286000034683F00103DBB2002B22D0002387E074
:1028700007F130031946786AFEF73EFE034683F0FF
:102880000103DBB2002B01D0002379E03B6A5B8AB5
:10289000082B04D1D7E90C23C7E90A2309E0D7E9BB
:1028A0000C231346DA17BB61FA61D7E90623C7E99F
:1028B0000A233B6A5B8A082B0AD13B6AD969D7E9AC
:1028C0000A23C1E90023D1E90023C7E9102342E02C
:1028D0003B6A5B8A042B0CD1D7E90A013B6ADB69AE
:1028E00002461A601B68DA179A469346C7E910AB8E
:1028F00031E03B6A5B8A022B0ED1D7E90A013B6AC1
:10290000DB6902B21A80B3F900301BB2DA179846BD
:102910009146C7E910891EE03B6A5B8A012B0ED104
:10292000D7E90A013B6ADB6942B21A7093F90030B9
:102930005BB2DA171C461546C7E910450BE07B6A07
:10294000DB68002B02D07B6ADB6800E00F4B7A6A01
:10295000D360002314E0D7E90A23D7E91001994294
:1029600008BF90420BD07B6ADB68002B02D07B6AE9
:10297000DB6800E0064B7A6AD360002300E00123A5
:1029800018465037BD46BDE8B08F00BF40AC0008C8
:1029900054AC000880B586B000AF7860396007F1AC
:1029A0000C0319467868FEF797FD034683F0010390
:1029B000DBB2002B01D0002355E0FB68B3F5803F6C
:1029C0000BD37B68DB68002B02D07B68DB6800E000
:1029D000274B7A68D360002345E0FB6802337B61B4
:1029E000FB687A699A420BD27B68DB68002B02D0C5
:1029F0007B68DB6800E01F4B7A68D360002332E01D
:102A00003B689B7D03F0C003802B0BD17B68DB68A8
:102A1000002B02D07B68DB6800E0174B7A68D3603C
:102A2000002320E03B685B8A1A467B6993420BD9FE
:102A30007B68DB68002B02D07B68DB6800E00C4B16
:102A40007A68D36000230EE03B68DB693B61FB687A
:102A50009AB23B691A803B690233FA681946786872
:102A6000FEF7C0FB034618461837BD4680BD00BFC1
:102A700068AC000878AC0008C0AB000880B586B030
:102A800000AF786039603B68DB697B6107F10C035C
:102A900019467868FEF720FD034683F00103DBB298
:102AA000002B01D000235AE0FB68B3F1FF3F0BD1AC
:102AB0007B68DB68002B02D07B68DB6800E02A4B78
:102AC0007A68D36000234AE0FB6801333B61FB680E
:102AD0003A699A420BD27B68DB68002B02D07B6894
:102AE000DB6800E0204B7A68D360002337E03B6866
:102AF0009B7D03F0C003802B0BD17B68DB68002B30
:102B000002D07B68DB6800E0184B7A68D360002352
:102B100025E03B685B8A1A463B6993420BD97B6888
:102B2000DB68002B02D07B68DB6800E0104B7A6822
:102B3000D360002313E0FB687A69134400221A7003
:102B4000FB681A4679697868FEF74CFB034683F008
:102B50000103DBB2002B01D0002300E00123184663
:102B60001837BD4680BD00BF78AC0008C0AB000878
:102B700088AC000880B58AB000AF78603960012366
:102B800087F82730002387F8263007F10C03194611
:102B90007868FEF72DFE034683F00103DBB2002BBD
:102BA00001D0002369E03B685B6A002B0BD17B6896
:102BB000DB68002B02D07B68DB6800E0314B7A6871
:102BC000D360002359E03B689B7D03F00F03092B82
:102BD0001CD13B681B6A002B18D03B681B6A083B62
:102BE000FB61FB691B68002B10D0FB691B68FA694D
:102BF000043207F10C0039689847034687F82730FC
:102C00007B69002B02D1012387F8263097F8273003
:102C1000002B22D097F8263083F00103DBB2002B83
:102C20001BD000233B623B689B7D03F0C003002B5D
:102C300007D13B689B7D03F03003202B01D001239B
:102C40003B623B68596A3B68DA6907F10C003B6AF2
:102C5000FFF7FAFA034687F8273007F10C03194605
:102C60007868FEF7FFFD034683F00103DBB2002B1B
:102C700001D0002301E097F8273018462837BD46D9
:102C800080BD00BF98AC000880B584B000AF78600C
:102C9000396007F10C0319467868FEF71DFC0346FE
:102CA00083F00103DBB2002B01D0002337E0FB6887
:102CB000B3F5803F0BD37B68DB68002B02D07B68C9
:102CC000DB6800E0184B7A68D360002327E0FB68DC
:102CD000002B09D13B68D8693B685B8A1A46002102
:102CE00007F06CF901231AE03B685B8A1A46FB681F
:102CF0009A420BD07B68DB68002B02D07B68DB68D4
:102D000000E00A4B7A68D360002308E03B68D96989
:102D10003B685B8A1A467868FEF764FA03461846F1
:102D20001037BD4680BD00BF68AC0008B4AC0008D9
:102D300080B483B000AF0A4BD3F85431084A43F053
:102D40000203C2F85431064BD3F8543103F00203A6
:102D50007B607B6800BF0C37BD465DF8047B704725
:102D60000044025880B400AF00BFFDE780B400AF5C
:102D700000BFFDE780B400AF00BFFDE780B400AF47
:102D800000BFFDE780B400AF00BFFDE780B400AF37
:102D900000BFBD465DF8047B704780B400AF00BF44
:102DA000BD465DF8047B704780B400AF00BFBD46F0
:102DB0005DF8047B704780B500AF00F0B5FA00BF46
:102DC00080BD000080B500AF024804F0C9FA00BF22
:102DD00080BD00BFA804002480B586B000AFF860B5
:102DE000B9607A6000237B610AE0AFF3008001469E
:102DF000BB685A1CBA60CAB21A707B6901337B6126
:102E00007A697B689A42F0DB7B6818461837BD46C2
:102E100080BD80B586B000AFF860B9607A600023ED
:102E20007B6109E0BB685A1CBA601B781846FDF745
:102E300041FD7B6901337B617A697B689A42F1DBF2
:102E40007B6818461837BD4680BD80B483B000AF9C
:102E500078604FF0FF3318460C37BD465DF8047BB1
:102E6000704780B483B000AF786039603B684FF43E
:102E700000525A60002318460C37BD465DF8047BAB
:102E8000704780B483B000AF7860012318460C37D8
:102E9000BD465DF8047B704780B485B000AFF86034
:102EA000B9607A60002318461437BD465DF8047B8C
:102EB0007047000080B586B000AF7860144A154BAB
:102EC000D31A7B617B693B61134B1B68002B02D1DA
:102ED000114B124A1A60104B1A687B6813443A6906
:102EE0009A4207D207F0B8F803460C221A604FF056
:102EF000FF3309E0084B1B68FB60074B1A687B68CF
:102F00001344054A1360FB6818461837BD4680BD58
:102F10000000102400040000A404002490060024F3
:102F200080B400AF3E4BD3F888303D4A43F4700381
:102F3000C2F888303B4B1B6803F00F03022B07D805
:102F4000384B1B6823F00F03364A43F0030313602A
:102F5000354B1B68344A43F001031360324B0022A7
:102F60001A61314B1A683049304B13400B602D4BBE
:102F70001B6803F00C03002B07D02A4B1B6823F0BF
:102F80000F03284A43F003031360274B00229A6182
:102F9000254B0022DA61244B00221A62224B244A7C
:102FA0009A62214B234ADA621F4B234A1A631E4B53
:102FB00000225A631C4B204A9A631B4B0022DA639F
:102FC000194B1D4A1A64184B00225A64164B1B6891
:102FD000154A23F480231360134B00221A66124B08
:102FE000D3F8343103F48053002B13D10E4BD3F8B4
:102FF00034310D4A43F48053C2F834310F4B43F25D
:10300000D2021A60084BD3F83431074A23F48053B4
:10301000C2F8343100BFBD465DF8047B704700BF85
:1030200000ED00E000200052004402587FEDF6EA77
:10303000000202020000FF01800201010040005274
:1030400080B400AF094BDB68084A23F00203D36069
:1030500000BF064B5B6803F40053002BF9D000BFA0
:1030600000BFBD465DF8047B704700BF00480258B2
:1030700080B500AF224B234A1A60214B4FF4E13256
:103080005A601F4B00229A601D4B0022DA601C4BD5
:1030900000221A611A4B0C225A61194B00229A61C4
:1030A000174B0022DA61164B00221A62144B0022E1
:1030B0005A62134B00229A62114804F027F8034623
:1030C000002B01D0FDF7BAFD00210D4806F0A1FC50
:1030D0000346002B01D0FDF7B1FD0021084806F0A2
:1030E000D6FC0346002B01D0FDF7A8FD044806F0EE
:1030F00057FC0346002B01D0FDF7A0FD00BF80BDAB
:10310000A80400240048004080B5BAB000AF786041
:1031100007F1D40300221A605A609A60DA601A61DB
:1031200007F11003C0220021184606F047FF7B6814
:103130001B682B4A93424ED14FF002024FF000031E
:10314000C7E904230023C7F8903007F1100318469D
:1031500002F0FCF90346002B01D0FDF76FFD214B77
:10316000D3F848311F4A43F48023C2F848311D4B3D
:10317000D3F8483103F48023FB60FB68194BD3F884
:103180004031184A43F00803C2F84031154BD3F8D8
:10319000403103F00803BB60BB684FF44073C7F8CD
:1031A000D4300223C7F8D8300023C7F8DC3000231E
:1031B000C7F8E0300723C7F8E43007F1D403194615
:1031C000094800F0E1FF00220021272000F0CBF9A0
:1031D000272000F0E2F900BFE837BD4680BD00BF00
:1031E0000048004000440258000C0258DFF838D074
:1031F000FFF726FFFFF794FE0C480D490D4A002308
:1032000002E0D458C4500433C4188C42F9D30A4A9B
:103210000A4C002301E013600432A242FBD306F003
:1032200021FFFDF72DFC7047000010240000002452
:103230006C00002478AD00086C0000248C0600248B
:10324000FEE7000080B582B000AF032000F080F9F7
:1032500001F0A6FF0246154B9B691B0A03F00F0302
:103260001349CB5C03F01F0322FA03F37B600F4B7F
:103270009B6903F00F030E4AD35C03F01F037A68C7
:1032800022FA03F30B4A13600B4A7B681360002099
:1032900000F014F80346002B01D0012302E0FFF7F1
:1032A00047FD002318460837BD4680BD004402583C
:1032B000FCAC0008040000240000002480B582B0AB
:1032C00000AF7860154B1B78002B01D1012321E062
:1032D000134B1A68114B1B7819464FF47A73B3FBE2
:1032E000F1F3B2FBF3F3184600F065F90346002B47
:1032F00001D001230EE07B680F2B0AD800227968E9
:103300004FF0FF3000F02FF9064A7B68136000236E
:1033100000E0012318460837BD4680BD0C0000249C
:10332000000000240800002480B400AF064B1B7886
:103330001A46064B1B681344044A136000BFBD467F
:103340005DF8047B704700BF0C0000243C0500249E
:1033500080B400AF034B1B681846BD465DF8047B84
:10336000704700BF3C05002480B584B000AF786092
:10337000FFF7EEFFB8607B68FB60FB68B3F1FF3FCF
:1033800005D00A4B1B781A46FB681344FB6000BF4C
:10339000FFF7DEFF0246BB68D31AFA689A42F7D8F5
:1033A00000BF00BF1037BD4680BD00BF0C00002429
:1033B00080B485B000AF78607B6803F00703FB60E2
:1033C0000B4BDB68BB60BA684FF6FF031340BB6072
:1033D000FB681A02BB681A43064B1343BB60044ADE
:1033E000BB68D36000BF1437BD465DF8047B7047EF
:1033F00000ED00E00000FA0580B400AF044BDB688C
:103400001B0A03F007031846BD465DF8047B7047AE
:1034100000ED00E080B483B000AF0346FB80B7F955
:103420000630002B0BDBFB8803F01F020749B7F9BE
:1034300006305B09012000FA02F241F8232000BFA8
:103440000C37BD465DF8047B704700BF00E100E02B
:1034500080B483B000AF03463960FB80B7F9063013
:10346000002B0ADB3B68DAB20C49B7F906301201CF
:10347000D2B20B4483F800230AE03B68DAB2084971
:10348000FB8803F00F03043B1201D2B20B441A76FF
:1034900000BF0C37BD465DF8047B704700E100E0DB
:1034A00000ED00E080B489B000AFF860B9607A60E8
:1034B000FB6803F00703FB61FB69C3F10703042BFF
:1034C00028BF0423BB61FB690433062B02D9FB69C7
:1034D000033B00E000237B614FF0FF32BB6902FA3F
:1034E00003F3DA43BB681A407B699A404FF0FF311F
:1034F0007B6901FA03F3D9437B680B4013431846F9
:103500002437BD465DF8047B7047000080B582B06B
:1035100000AF78607B68013BB3F1807F01D301236A
:103520000FE00A4A7B68013B53600F214FF0FF30E8
:10353000FFF78EFF054B00229A60044B07221A60AA
:10354000002318460837BD4680BD00BF10E000E0EC
:1035500080B582B000AF78607868FFF729FF00BFC0
:103560000837BD4680BD80B586B000AF0346B96060
:103570007A60FB81FFF740FF78617A68B968786903
:10358000FFF790FF0246B7F90E3011461846FFF7D5
:103590005FFF00BF1837BD4680BD80B582B000AF69
:1035A0000346FB80B7F906301846FFF733FF00BF2C
:1035B0000837BD4680BD80B582B000AF78607868BE
:1035C000FFF7A4FF034618460837BD4680BD00003C
:1035D00080B400AFBFF35F8F00BF074B5B6A064A42
:1035E00023F480335362054B00225A6000BFBD466E
:1035F0005DF8047B704700BF00ED00E090ED00E057
:1036000080B483B000AF78600B4A7B6843F001035D
:1036100053600A4B5B6A094A43F480335362BFF339
:103620004F8F00BFBFF36F8F00BF00BF0C37BD4689
:103630005DF8047B704700BF90ED00E000ED00E016
:1036400080B483B000AF78607B685A781B4B9A6077
:103650001A4B1B69194A23F001031361174A7B684F
:103660005B68D3607B681B7B1A077B68DB7A1B0671
:103670001A437B689B7ADB041A437B685B7B9B0461
:103680001A437B689B7B5B041A437B68DB7B1B04D0
:103690001A437B685B7A1B021A437B681B7A5B00C8
:1036A00013437A6812781146044A0B43136100BF32
:1036B0000C37BD465DF8047B704700BF90ED00E01D
:1036C00080B586B000AF7860FFF742FE38617B6856
:1036D000002B01D10123DCE27B6893F83530DBB2AB
:1036E000022B08D07B6880225A657B68002283F811
:1036F00034200123CDE27B681B68764A93424AD08E
:103700007B681B68744A934245D07B681B68734A88
:10371000934240D07B681B68714A93423BD07B68E0
:103720001B68704A934236D07B681B686E4A93428E
:1037300031D07B681B686D4A93422CD07B681B6834
:103740006B4A934227D07B681B686A4A934222D017
:103750007B681B68684A93421DD07B681B68674A78
:10376000934218D07B681B68654A934213D07B68EC
:103770001B68644A93420ED07B681B68624A93427E
:1037800009D07B681B68614A934204D07B681B6840
:103790005F4A934201D1012300E00023002B13D0A4
:1037A0007B681B681A687B681B6822F01E021A601F
:1037B0007B681B685A697B681B6822F080025A612B
:1037C0007B681B687B610AE07B681B681A687B6802
:1037D0001B6822F00E021A607B681B687B617B68A5
:1037E0001B683C4A934272D07B681B683A4A9342FA
:1037F0006DD07B681B68394A934268D07B681B6830
:10380000374A934263D07B681B68364A93425ED046
:103810007B681B68344A934259D07B681B68334AE3
:10382000934254D07B681B68314A93424FD07B68E7
:103830001B68304A93424AD07B681B682E4A9342E9
:1038400045D07B681B682D4A934240D07B681B683B
:103850002B4A93423BD07B681B682A4A934236D05E
:103860007B681B68284A934231D07B681B68274AD3
:1038700093422CD07B681B68254A934227D07B68F3
:103880001B68244A934222D07B681B68224A9342D9
:103890001DD07B681B68214A934218D07B681B6847
:1038A0001F4A934213D07B681B681E4A93420ED076
:1038B0007B681B681C4A934209D07B681B681B4AC3
:1038C000934204D07B681B68194A934232D101238A
:1038D00031E000BF100002402800024040000240DA
:1038E000580002407000024088000240A0000240E0
:1038F000B800024010040240280402404004024084
:10390000580402407004024088040240A0040240AF
:10391000B8040240085402581C540258305402584B
:1039200044540258585402586C5402588054025857
:10393000945402580023002B07D07B681B6E1A6832
:103940007B681B6E22F480721A607B681B686D4A6C
:1039500093424AD07B681B686B4A934245D07B6890
:103960001B686A4A934240D07B681B68684A93424E
:103970003BD07B681B68674A934236D07B681B68E4
:10398000654A934231D07B681B68644A93422CD0CD
:103990007B681B68624A934227D07B681B68614A38
:1039A000934222D07B681B685F4A93421DD07B689C
:1039B0001B685E4A934218D07B681B685C4A93423E
:1039C00013D07B681B685B4A93420ED07B681B68F0
:1039D000594A934209D07B681B68584A934204D0E5
:1039E0007B681B68564A934208D17B681B681A683B
:1039F0007B681B6822F001021A6007E07B681B6885
:103A00001A687B681B6822F001021A6013E0FFF756
:103A10009FFC02463B69D31A052B0CD97B682022F8
:103A20005A657B68032283F835207B68002283F87F
:103A3000342001232DE17B691B6803F00103002B77
:103A4000E5D17B681B682F4A93424AD07B681B688C
:103A50002D4A934245D07B681B682C4A934240D044
:103A60007B681B682A4A93423BD07B681B68294AC3
:103A7000934236D07B681B68274A934231D07B68DB
:103A80001B68264A93422CD07B681B68244A9342C9
:103A900027D07B681B68234A934222D07B681B682F
:103AA000214A93421DD07B681B68204A934218D05C
:103AB0007B681B681E4A934213D07B681B681D4AB3
:103AC00093420ED07B681B681B4A934209D07B68E7
:103AD0001B681A4A934204D07B681B68184A9342B9
:103AE00001D1012300E00023002B2BD07B689B6DCC
:103AF000BB607B68DB6D03F01F033F229A40BB680D
:103B00009A602AE010000240280002404000024073
:103B1000580002407000024088000240A0000240AD
:103B2000B800024010040240280402404004024051
:103B3000580402407004024088040240A00402407D
:103B4000B80402407B689B6DFB607B68DB6D03F013
:103B50001F0301229A40FB685A607B681B684F4A2A
:103B6000934272D07B681B684D4A93426DD07B684C
:103B70001B684C4A934268D07B681B684A4A934250
:103B800063D07B681B68494A93425ED07B681B68A0
:103B9000474A934259D07B681B68464A934254D0A7
:103BA0007B681B68444A93424FD07B681B68434A3A
:103BB00093424AD07B681B68414A934245D07B6858
:103BC0001B68404A934240D07B681B683E4A934240
:103BD0003BD07B681B683D4A934236D07B681B68AC
:103BE0003B4A934231D07B681B683A4A93422CD0BF
:103BF0007B681B68384A934227D07B681B68374A2A
:103C0000934222D07B681B68354A93421DD07B6863
:103C10001B68344A934218D07B681B68324A93422F
:103C200013D07B681B68314A93420ED07B681B68B7
:103C30002F4A934209D07B681B682E4A934204D0D6
:103C40007B681B682C4A934201D1012300E00023CA
:103C5000002B15D07B685B6E7A68926E5A607B6829
:103C6000DB6E002B0CD07B68DB6E1A687B68DB6E2A
:103C700022F480721A607B681B6F7A68526F5A60F8
:103C80007B68012283F835207B68002283F834208A
:103C9000002318461837BD4680BD00BF1000024003
:103CA00028000240400002405800024070000240DC
:103CB00088000240A0000240B80002401004024008
:103CC00028040240400402405804024070040240AC
:103CD00088040240A0040240B8040240085402587C
:103CE0001C54025830540258445402585854025834
:103CF0006C540258805402589454025880B584B0D1
:103D000000AF78607B68002B01D1012337E27B682C
:103D100093F83530DBB2022B04D07B6880225A65E1
:103D200001232CE27B681B685C4A93424AD07B6883
:103D30001B685B4A934245D07B681B68594A934293
:103D400040D07B681B68584A93423BD07B681B6815
:103D5000564A934236D07B681B68554A934231D00D
:103D60007B681B68534A93422CD07B681B68524A7D
:103D7000934227D07B681B68504A934222D07B68CD
:103D80001B684F4A93421DD07B681B684D4A934283
:103D900018D07B681B684C4A934213D07B681B6821
:103DA0004A4A93420ED07B681B68494A934209D025
:103DB0007B681B68474A934204D07B681B68464A6D
:103DC000934201D1012300E00023002B00F0868004
:103DD0007B68042283F835207B681B682F4A934256
:103DE0004AD07B681B682E4A934245D07B681B688B
:103DF0002C4A934240D07B681B682B4A93423BD0AD
:103E00007B681B68294A934236D07B681B68284A26
:103E1000934231D07B681B68264A93422CD07B6842
:103E20001B68254A934227D07B681B68234A93422C
:103E300022D07B681B68224A93421DD07B681B6896
:103E4000204A934218D07B681B681F4A934213D0C4
:103E50007B681B681D4A93420ED07B681B681C4A16
:103E6000934209D07B681B681A4A934204D07B684E
:103E70001B68194A934208D17B681B681A687B68E3
:103E80001B6822F001021A6078E17B681B681A68DF
:103E90007B681B6822F001021A606FE1100002408B
:103EA00028000240400002405800024070000240DA
:103EB00088000240A0000240B80002401004024006
:103EC00028040240400402405804024070040240AA
:103ED00088040240A0040240B80402407B681B68CA
:103EE0001A687B681B6822F00E021A607B681B68E8
:103EF0006C4A93424AD07B681B686B4A934245D018
:103F00007B681B68694A934240D07B681B68684A9B
:103F100093423BD07B681B68664A934236D07B68ED
:103F20001B68654A934231D07B681B68634A9342A1
:103F30002CD07B681B68624A934227D07B681B6841
:103F4000604A934222D07B681B685F4A93421DD02F
:103F50007B681B685D4A934218D07B681B685C4A8B
:103F6000934213D07B681B685A4A93420ED07B68F9
:103F70001B68594A934209D07B681B68574A934291
:103F800004D07B681B68564A934208D17B681B6843
:103F90001A687B681B6822F001021A6007E07B68E0
:103FA0001B681A687B681B6822F001021A607B6834
:103FB0001B683C4A934272D07B681B683A4A934222
:103FC0006DD07B681B68394A934268D07B681B6858
:103FD000374A934263D07B681B68364A93425ED06F
:103FE0007B681B68344A934259D07B681B68334A0C
:103FF000934254D07B681B68314A93424FD07B6810
:104000001B68304A93424AD07B681B682E4A934211
:1040100045D07B681B682D4A934240D07B681B6863
:104020002B4A93423BD07B681B682A4A934236D086
:104030007B681B68284A934231D07B681B68274AFB
:1040400093422CD07B681B68254A934227D07B681B
:104050001B68244A934222D07B681B68224A934201
:104060001DD07B681B68214A934218D07B681B686F
:104070001F4A934213D07B681B681E4A93420ED09E
:104080007B681B681C4A934209D07B681B681B4AEB
:10409000934204D07B681B68194A934232D10123B2
:1040A00031E000BF10000240280002404000024002
:1040B000580002407000024088000240A000024008
:1040C000B8000240100402402804024040040240AC
:1040D000580402407004024088040240A0040240D8
:1040E000B8040240085402581C5402583054025874
:1040F00044540258585402586C5402588054025880
:10410000945402580023002B28D07B681B6E1A6839
:104110007B681B6E22F480721A607B689B6DFB606B
:104120007B68DB6D03F01F0301229A40FB685A6035
:104130007B685B6E7A68926E5A607B68DB6E002BE0
:104140000CD07B68DB6E1A687B68DB6E22F48072B1
:104150001A607B681B6F7A68526F5A607B68012215
:1041600083F835207B68002283F834207B681B6D40
:10417000002B03D07B681B6D786898470023184696
:104180001037BD4680BD00BF80B489B000AF7860F5
:1041900039600023FB61894B7B6194E13B681A68BD
:1041A0000121FB6901FA03F313403B613B69002BDA
:1041B00000F086813B685B6803F00303012B05D0A8
:1041C0003B685B6803F00303022B30D17B689B687C
:1041D000BB61FB695B00032202FA03F3DB43BA69AC
:1041E0001340BB613B68DA68FB695B0002FA03F3CA
:1041F000BA691343BB617B68BA699A607B685B6884
:10420000BB610122FB6902FA03F3DB43BA69134085
:10421000BB613B685B681B0903F00102FB6902FAA2
:1042200003F3BA691343BB617B68BA695A603B68A0
:104230005B6803F00303032B17D07B68DB68BB616B
:10424000FB695B00032202FA03F3DB43BA69134004
:10425000BB613B689A68FB695B0002FA03F3BA69C9
:104260001343BB617B68BA69DA603B685B6803F043
:104270000303022B23D1FB69DA087B68083253F869
:104280002230BB61FB6903F007039B000F2202FA97
:1042900003F3DB43BA691340BB613B681A69FB69EE
:1042A00003F007039B0002FA03F3BA691343BB61EF
:1042B000FB69DA087B680832B96943F822107B6829
:1042C0001B68BB61FB695B00032202FA03F3DB435B
:1042D000BA691340BB613B685B6803F00302FB698A
:1042E0005B0002FA03F3BA691343BB617B68BA69E6
:1042F0001A603B685B6803F44033002B00F0E080F9
:104300002F4BD3F854312E4A43F00203C2F85431F4
:104310002B4BD3F8543103F00203FB60FB68294AAE
:10432000FB699B08023352F82330BB61FB6903F041
:1043300003039B000F2202FA03F3DB43BA69134025
:10434000BB617B68204A934252D07B681F4A9342EC
:1043500031D07B681E4A93422BD07B681D4A934222
:1043600025D07B681C4A93421FD07B681B4A93422E
:1043700019D07B681A4A934213D07B68194A93423A
:104380000DD07B68184A934207D07B68174A934246
:1043900001D109232DE00A232BE0082329E007237C
:1043A00027E0062325E0052323E0042321E003235F
:1043B0001FE002231DE001231BE000BF8000005826
:1043C000004402580004005800000258000402583B
:1043D00000080258000C025800100258001402583D
:1043E00000180258001C02580020025800240258ED
:1043F0000023FA6902F0030292009340BA69134362
:10440000BB613849FB699B080233BA6941F8232034
:104410004FF0B0431B68BB613B69DB43BA69134093
:10442000BB613B685B6803F48013002B03D0BA695F
:104430003B691343BB614FF0B042BB6913604FF05F
:10444000B0435B68BB613B69DB43BA691340BB6146
:104450003B685B6803F40013002B03D0BA693B6927
:104460001343BB614FF0B042BB6953607B695B682B
:10447000BB613B69DB43BA691340BB613B685B6866
:1044800003F40033002B03D0BA693B691343BB61CB
:104490007B69BA695A607B691B68BB613B69DB4316
:1044A000BA691340BB613B685B6803F48033002B3F
:1044B00003D0BA693B691343BB617B69BA691A606F
:1044C000FB690133FB613B681A68FB6922FA03F35D
:1044D000002B7FF463AE00BF00BF2437BD465DF8FC
:1044E000047B70470004005880B483B000AF78604C
:1044F0000B467B8013467B707B78002B03D07A8839
:104500007B689A6103E07B881A047B689A6100BF2C
:104510000C37BD465DF8047B7047000080B584B061
:1045200000AF7860294BDB6803F00703062B0AD045
:10453000264BDB6803F03F037A689A4201D00123DF
:1045400040E000233EE0214BDB6823F03F021F499F
:104550007B681343CB60FEF7FBFEF86009E0FEF7D3
:10456000F7FE0246FB68D31AB3F57A7F01D901231F
:1045700028E0164B5B6803F40053B3F5005FEED1FF
:104580007B681E2B08D07B682E2B05D07B681D2BEB
:1045900002D07B682D2B14D1FEF7DAFEF86009E01B
:1045A000FEF7D6FE0246FB68D31AB3F57A7F01D92F
:1045B000012307E0054BDB6803F48033B3F5803F4C
:1045C000EED1002318461037BD4680BD0048025882
:1045D00080B58CB000AF78607B68002B02D10123DE
:1045E00000F01FBC7B681B6803F00103002B00F088
:1045F000B380954B1B6903F03803FB62924B9B6AB7
:10460000BB62FB6A102B07D0FB6A182B12D1BB6A66
:1046100003F00303022B0DD18B4B1B6803F4003313
:10462000002B00F098807B685B68002B40F0938043
:104630000123F6E37B685B68B3F5803F06D1824BCC
:104640001B68814A43F48033136058E07B685B68E1
:10465000002B12D17C4B1B687B4A23F48033136000
:10466000794B1B68784A23F480131360764B1B68E0
:10467000754A23F48023136041E07B685B68B3F5DF
:10468000A02F12D1704B1B686F4A43F48023136034
:104690006D4B1B686C4A23F4801313606A4B1B68D4
:1046A000694A43F48033136029E07B685B68B3F5A3
:1046B000A81F12D1644B1B68634A43F48023136024
:1046C000614B1B68604A43F4801313605E4B1B68A8
:1046D0005D4A43F48033136011E05B4B1B685A4A18
:1046E00023F480331360584B1B68574A23F480230C
:1046F0001360554B1B68544A23F4801313607B6886
:104700005B68002B13D0FEF723FE786208E0FEF70B
:104710001FFE02467B6AD31A642B01D9032380E370
:10472000494B1B6803F40033002BF0D014E0FEF774
:104730000FFE786208E0FEF70BFE02467B6AD31A92
:10474000642B01D903236CE33F4B1B6803F4003354
:10475000002BF0D100E000BF7B681B6803F0020370
:10476000002B00F08C80384B1B6903F038033B6250
:10477000354B9B6AFB613B6A002B07D03B6A182BC9
:1047800037D1FB6903F00303002B32D12E4B1B689A
:1047900003F00403002B05D07B68DB68002B01D1FC
:1047A00001233EE3284B1B6823F019027B68DB687A
:1047B000254913430B60FEF7CBFD786208E0FEF756
:1047C000C7FD02467B6AD31A022B01D9032328E3D3
:1047D0001D4B1B6803F00403002BF0D01A4B5B68E1
:1047E00023F0FE427B681B691B06174913434B608D
:1047F00045E07B68DB68002B28D0134B1B6823F057
:1048000019027B68DB68104913430B60FEF7A0FDBB
:10481000786208E0FEF79CFD02467B6AD31A022B01
:1048200001D90323FDE2084B1B6803F00403002BAE
:10483000F0D0054B5B6823F0FE427B681B691B06CA
:10484000014913434B601AE000440258974B1B6820
:10485000964A23F001031360FEF77AFD786208E0C0
:10486000FEF776FD02467B6AD31A022B01D9032399
:10487000D7E28E4B1B6803F00403002BF0D17B685A
:104880001B6803F01003002B6AD0884B1B6903F0F0
:104890003803BB61854B9B6A7B61BB69082B07D0E2
:1048A000BB69182B1BD17B6903F00303012B16D1C5
:1048B0007E4B1B6803F48073002B05D07B68DB699B
:1048C000802B01D00123ACE2784BDB6823F07C52D3
:1048D0007B681B6A1B0675491343CB6040E07B680D
:1048E000DB69002B23D0714B1B68704A43F08003B7
:1048F0001360FEF72DFD786208E0FEF729FD024601
:104900007B6AD31A022B01D903238AE2674B1B6807
:1049100003F48073002BF0D0644BDB6823F07C52EF
:104920007B681B6A1B0661491343CB6018E05F4B31
:104930001B685E4A23F080031360FEF709FD78626E
:1049400008E0FEF705FD02467B6AD31A022B01D967
:10495000032366E2554B1B6803F48073002BF0D1F0
:104960007B681B6803F00803002B36D07B685B690B
:10497000002B19D04D4B5B6F4C4A43F0010353673A
:10498000FEF7E6FC786208E0FEF7E2FC02467B6A8E
:10499000D31A022B01D9032343E2444B5B6F03F08C
:1049A0000203002BF0D018E0404B5B6F3F4A23F02E
:1049B00001035367FEF7CCFC786208E0FEF7C8FC01
:1049C00002467B6AD31A022B01D9032329E2374B13
:1049D0005B6F03F00203002BF0D17B681B6803F0D0
:1049E0002003002B36D07B689B69002B19D02F4BFE
:1049F0001B682E4A43F480531360FEF7A9FC7862CB
:104A000008E0FEF7A5FC02467B6AD31A022B01D907
:104A1000032306E2254B1B6803F40053002BF0D060
:104A200018E0224B1B68214A23F480531360FEF7E1
:104A30008FFC786208E0FEF78BFC02467B6AD31A93
:104A4000022B01D90323ECE1184B1B6803F400533C
:104A5000002BF0D17B681B6803F00403002B00F0EF
:104A6000AF80134B1B68124A43F480731360FEF748
:104A70006FFC786208E0FEF76BFC02467B6AD31A93
:104A8000642B01D90323CCE1094B1B6803F4807329
:104A9000002BF0D07B689B68012B0BD1034B1B6F65
:104AA000024A43F0010313675BE000BF0044025871
:104AB000004802587B689B68002B12D19D4B1B6FEE
:104AC0009C4A23F0010313679A4B1B6F994A23F00A
:104AD00080031367974B1B6F964A23F004031367F9
:104AE0003FE07B689B68052B12D1924B1B6F914A6C
:104AF00043F0040313678F4B1B6F8E4A23F0800330
:104B000013678C4B1B6F8B4A43F00103136728E03C
:104B10007B689B68852B12D1864B1B6F854A43F0BF
:104B200004031367834B1B6F824A43F080031367B0
:104B3000804B1B6F7F4A43F00103136711E07D4BED
:104B40001B6F7C4A23F0010313677A4B1B6F794A72
:104B500023F004031367774B1B6F764A23F080031F
:104B600013677B689B68002B15D0FEF7F1FB78621A
:104B70000AE0FEF7EDFB02467B6AD31A41F2883267
:104B8000934201D903234CE16A4B1B6F03F00203EC
:104B9000002BEED014E0FEF7DBFB78620AE0FEF7B4
:104BA000D7FB02467B6AD31A41F28832934201D97D
:104BB000032336E15F4B1B6F03F00203002BEED1A2
:104BC0007B685B6A002B00F02B815A4B1B6903F05A
:104BD0003803182B00F0BB807B685B6A022B40F027
:104BE0009580544B1B68534A23F080731360FEF783
:104BF000AFFB786208E0FEF7ABFB02467B6AD31A94
:104C0000022B01D903230CE14A4B1B6803F000730C
:104C1000002BF0D1474B9A6A474B13407A68916A50
:104C20007A68D26A12010A43424913438B627B6855
:104C30001B6B013BC3F308027B685B6B013B5B02B0
:104C40009BB21A437B689B6B013B1B0403F4FE037E
:104C50001A437B68DB6B013B1B0603F0FE433549BF
:104C600013430B63334BDB6A324A23F00103D362F5
:104C7000304B5A6B314B13407A68926CD2002D49FD
:104C800013434B632B4BDB6A23F00C027B681B6CDA
:104C900028491343CB62274BDB6A23F002027B686F
:104CA0005B6C24491343CB62224BDB6A214A43F4F9
:104CB0008033D3621F4BDB6A1E4A43F40033D36256
:104CC0001C4BDB6A1B4A43F48023D362194BDB6A1B
:104CD000184A43F00103D362164B1B68154A43F090
:104CE00080731360FEF734FB786208E0FEF730FB58
:104CF00002467B6AD31A022B01D9032391E00D4BA4
:104D00001B6803F00073002BF0D089E0094B1B688F
:104D1000084A23F080731360FEF71AFB78620FE0F5
:104D2000FEF716FB02467B6AD31A022B08D903232F
:104D300077E000BF004402580CFCFFFF0700FFFFB4
:104D40003A4B1B6803F00073002BE9D168E0374B46
:104D50009B6A3B61354B1B6BFB607B685B6A012B7D
:104D600031D03B6903F003027B689B6A9A422AD1E7
:104D70003B691B0903F03F027B68DB6A9A4222D140
:104D8000FB68C3F308027B681B6B013B9A421AD194
:104D9000FB685B0A03F07F027B685B6B013B9A4216
:104DA00011D1FB681B0C03F07F027B689B6B013BFE
:104DB0009A4208D1FB681B0E03F07F027B68DB6B15
:104DC000013B9A4201D001232BE0184B5B6BDB08BF
:104DD000C3F30C033B617B689B6C3A699A421FD01A
:104DE000124BDB6A114A23F00103D362FEF7B0FADB
:104DF000786200BFFEF7ACFA02467B6A9342F9D0B4
:104E00000A4B5A6B0A4B13407A68926CD2000749DE
:104E100013434B63054BDB6A044A43F00103D3623F
:104E2000002318463037BD4680BD00BF00440258FD
:104E30000700FFFF80B586B000AF786039607B68FF
:104E4000002B01D101239CE18A4B1B6803F00F0367
:104E50003A689A4210D9874B1B6823F00F028549A4
:104E60003B6813430B60834B1B6803F00F033A68E6
:104E70009A4201D0012384E17B681B6803F004039C
:104E8000002B10D07B681A697B4B9B6903F0700381
:104E90009A4208D9784B9B6923F070027B681B69A2
:104EA000754913438B617B681B6803F00803002B73
:104EB00010D07B685A69704BDB6903F070039A422B
:104EC00008D96D4BDB6923F070027B685B696A4926
:104ED0001343CB617B681B6803F01003002B10D0D9
:104EE0007B689A69644BDB6903F4E0639A4208D9F2
:104EF000614BDB6923F4E0627B689B695E49134385
:104F0000CB617B681B6803F02003002B10D07B680B
:104F1000DA69594B1B6A03F070039A4208D9564B61
:104F20001B6A23F070027B68DB69534913430B62F1
:104F30007B681B6803F00203002B10D07B68DA68E3
:104F40004D4B9B6903F00F039A4208D94A4B9B696A
:104F500023F00F027B68DB68474913438B617B6852
:104F60001B6803F00103002B55D0434B9B6923F4CE
:104F700070627B689B68404913438B617B685B6808
:104F8000022B07D13C4B1B6803F40033002B21D1CB
:104F90000123F6E07B685B68032B07D1364B1B6867
:104FA00003F00073002B15D10123EAE07B685B68F6
:104FB000012B07D1304B1B6803F48073002B09D100
:104FC0000123DEE02C4B1B6803F00403002B01D10E
:104FD0000123D6E0284B1B6923F007027B685B683E
:104FE000254913430B61FEF7B3F978610AE0FEF738
:104FF000AFF902467B69D31A41F28832934201D954
:105000000323BEE01C4B1B6903F038027B685B681E
:10501000DB009A42EBD17B681B6803F00203002B94
:1050200010D07B68DA68144B9B6903F00F039A4237
:1050300008D2114B9B6923F00F027B68DB680E4995
:1050400013438B610B4B1B6803F00F033A689A42C2
:1050500014D2084B1B6823F00F0206493B68134328
:105060000B60044B1B6803F00F033A689A4205D0AB
:10507000012386E000200052004402587B681B6830
:1050800003F00403002B10D07B681A693F4B9B6927
:1050900003F070039A4208D23C4B9B6923F07002E4
:1050A0007B681B69394913438B617B681B6803F07C
:1050B0000803002B10D07B685A69344BDB6903F07E
:1050C00070039A4208D2314BDB6923F070027B688F
:1050D0005B692E491343CB617B681B6803F01003A7
:1050E000002B10D07B689A69284BDB6903F4E063DE
:1050F0009A4208D2254BDB6923F4E0627B689B6906
:1051000022491343CB617B681B6803F02003002B0B
:1051100010D07B68DA691D4B1B6A03F070039A425A
:1051200008D21A4B1B6A23F070027B68DB691749AF
:1051300013430B6200F034F80246144B9B691B0AC0
:1051400003F00F031249CB5C03F01F0322FA03F3B1
:105150003B610E4B9B6903F00F030D4AD35C03F0D8
:105160001F033A6922FA03F30A4A13600A4A3B69A9
:1051700013600A4B1B681846FEF7A0F80346FB7342
:10518000FB7B18461837BD4680BD00BF004402585F
:10519000FCAC0008040000240000002408000024E7
:1051A00080B489B000AFB34B1B6903F03803182BF0
:1051B00000F2558101A252F823F000BF21520008ED
:1051C0005F5400085F5400085F5400085F540008F3
:1051D0005F5400085F5400085F54000847520008FD
:1051E0005F5400085F5400085F5400085F540008D3
:1051F0005F5400085F5400085F5400084D520008D7
:105200005F5400085F5400085F5400085F540008B2
:105210005F5400085F5400085F54000853520008B0
:10522000944B1B6803F02003002B09D0914B1B68A3
:10523000DB0803F00303904A22FA03F3BB6111E198
:105240008D4BBB610EE18D4BBB610BE18C4BBB61A8
:1052500008E1884B9B6A03F003037B61854B9B6AE3
:105260001B0903F03F033B61824BDB6A03F0010340
:10527000FB60804B5B6BDB08C3F30C03FA6802FB3B
:1052800003F307EE903AF8EE677AC7ED027A3B69CE
:10529000002B00F0E1807B69022B00F083807B69AA
:1052A000022B00F2A1807B69002B03D07B69012BCC
:1052B00056D099E06F4B1B6803F02003002B2DD0D4
:1052C0006C4B1B68DB0803F003036B4A22FA03F301
:1052D0007B607B6807EE903AF8EE676A3B6907EE01
:1052E000903AF8EE677A86EEA77A624B1B6BC3F3AF
:1052F000080307EE903AF8EE676A97ED026ADFED71
:10530000615AC6EE257A76EEA77AF7EE006A77EE56
:10531000A67A67EE277AC7ED077A87E03B6907EE42
:10532000903AF8EE677ADFED586A86EEA77A514B2D
:105330001B6BC3F3080307EE903AF8EE676A97ED2C
:10534000026ADFED505AC6EE257A76EEA77AF7EEBE
:10535000006A77EEA67A67EE277AC7ED077A65E0EE
:105360003B6907EE903AF8EE677ADFED486A86EE21
:10537000A77A404B1B6BC3F3080307EE903AF8EE95
:10538000676A97ED026ADFED3F5AC6EE257A76EE40
:10539000A77AF7EE006A77EEA67A67EE277AC7ED6E
:1053A000077A43E03B6907EE903AF8EE677ADFED63
:1053B000386A86EEA77A2F4B1B6BC3F3080307EE00
:1053C000903AF8EE676A97ED026ADFED2E5AC6EE64
:1053D000257A76EEA77AF7EE006A77EEA67A67EE80
:1053E000277AC7ED077A21E03B6907EE903AF8EE9D
:1053F000677ADFED266A86EEA77A1E4B1B6BC3F336
:10540000080307EE903AF8EE676A97ED026ADFED5F
:105410001D5AC6EE257A76EEA77AF7EE006A77EE89
:10542000A67A67EE277AC7ED077A00BF114B1B6B90
:105430005B0A03F07F0301333B603B6807EE903A61
:10544000B8EE677AD7ED076AC6EE877AFCEEE77AA0
:1054500017EE903ABB6105E00023BB6102E0074B09
:10546000BB6100BFBB6918462437BD465DF8047BAD
:10547000704700BF004402580090D00300093D006F
:1054800000127A00000000460024744C0024744A84
:105490000024F44A80B582B000AFFFF781FE0246D7
:1054A000104B9B691B0A03F00F030F49CB5C03F001
:1054B0001F0322FA03F37B600A4B9B6903F00F037F
:1054C000094AD35C03F01F037A6822FA03F3074A00
:1054D0001360074A7B681360044B1B681846083743
:1054E000BD4680BD00440258FCAC00080400002406
:1054F0000000002480B500AFFFF7CCFF0246064B4A
:10550000DB691B0903F007030449CB5C03F01F03AD
:1055100022FA03F3184680BD00440258FCAC000890
:1055200080B500AFFFF7B6FF0246064BDB691B0AEA
:1055300003F007030449CB5C03F01F0322FA03F3D3
:10554000184680BD00440258FCAC00082DE9B04F5D
:10555000C8B000AFC7F80C01002387F81F31002343
:1055600087F81E31D7F80C31D3E9002302F000642C
:10557000002554EA050349D0D7F80C31DB6EB3F5AA
:10558000401F2FD0B3F5401F28D8B3F5001F1AD005
:10559000B3F5001F22D8002B03D0B3F5801F07D02E
:1055A0001CE0A74BDB6AA64A43F40033D3621AE03F
:1055B000D7F80C3108330221184601F043FC0346AA
:1055C00087F81F310FE0D7F80C3128330221184635
:1055D00001F0EAFC034687F81F3104E0012387F855
:1055E0001F3100E000BF97F81F31002B0AD1944B08
:1055F0001B6D23F44011D7F80C31DB6E904A0B433E
:10560000136503E097F81F3187F81E31D7F80C3186
:10561000D3E9002302F480784FF0000958EA090327
:1056200047D0D7F80C319B6D042B2AD801A252F831
:1056300023F000BF49560008575600086D56000871
:105640008B5600088B5600087D4BDB6A7C4A43F47E
:105650000033D3621AE0D7F80C3108330021184622
:1056600001F0F0FB034687F81F310FE0D7F80C314B
:1056700028330021184601F097FC034687F81F31B4
:1056800004E0012387F81F3100E000BF97F81F31C5
:10569000002B0AD16A4B1B6D23F00701D7F80C31A0
:1056A0009B6D674A0B43136503E097F81F3187F83A
:1056B0001E31D7F80C31D3E9002302F4007A4FF001
:1056C000000B5AEA0B0354D0D7F80C31DB6DB3F55D
:1056D000A07F36D0B3F5A07F2FD8B3F5807F32D02E
:1056E000B3F5807F29D8C02B2FD0C02B25D8802B95
:1056F00018D0802B21D8002B02D0402B07D01CE0E3
:105700004F4BDB6A4E4A43F40033D3621EE0D7F8B6
:105710000C3108330021184601F094FB034687F84A
:105720001F3113E0D7F80C3128330021184601F05F
:105730003BFC034687F81F3108E0012387F81F313F
:1057400004E000BF02E000BF00E000BF97F81F3197
:10575000002B0AD13A4B1B6D23F4E071D7F80C31C2
:10576000DB6D374A0B43136503E097F81F3187F869
:105770001E31D7F80C31D3E9002302F48063C7F857
:1057800000310023C7F80431D7E940120B46134318
:105790005CD0D7F80C311B6EB3F5206F3BD0B3F55E
:1057A000206F34D8B3F5006F37D0B3F5006F2ED823
:1057B000B3F5C06F33D0B3F5C06F28D8B3F5806FA1
:1057C0001AD0B3F5806F22D8002B03D0B3F5007F39
:1057D00007D01CE01A4BDB6A194A43F40033D3624A
:1057E0001EE0D7F80C3108330021184601F02AFBDF
:1057F000034687F81F3113E0D7F80C312833002116
:10580000184601F0D1FB034687F81F3108E0012359
:1058100087F81F3104E000BF02E000BF00E000BFD6
:1058200097F81F31002B0DD1054B1B6D23F46061E0
:10583000D7F80C311B6E024A0B43136506E000BF1C
:105840000044025897F81F3187F81E31D7F80C3101
:10585000D3E9002302F00073C7F8F8300023C7F83B
:10586000FC30D7E93E120B4613433AD0D7F80C313F
:10587000DB6C302B1FD0302B19D8202B0CD0202BD9
:1058800015D8002B19D0102B11D1AE4BDB6AAD4AC5
:1058900043F40033D36211E0D7F80C31083302210E
:1058A000184601F0CFFA034687F81F3106E00123BE
:1058B00087F81F3102E000BF00E000BF97F81F31FA
:1058C000002B0AD19F4BDB6C23F03001D7F80C3151
:1058D000DB6C9C4A0B43D36403E097F81F3187F8D5
:1058E0001E31D7F80C31D3E9002302F48053C7F8F6
:1058F000F0300023C7F8F430D7E93C120B461343CD
:1059000051D0D7F80C315B6EB3F5804F35D0B3F57D
:10591000804F2ED8B3F5405F31D0B3F5405F28D823
:10592000B3F5005F1AD0B3F5005F22D8002B03D087
:10593000B3F5805F07D01CE0824BDB6A814A43F4F9
:105940000033D3621CE0D7F80C310833002118462D
:1059500001F078FA034687F81F3111E0D7F80C31CF
:1059600028330021184601F01FFB034687F81F313A
:1059700006E0012387F81F3102E000BF00E000BF0E
:1059800097F81F31002B0AD16E4B1B6D23F4E041B9
:10599000D7F80C315B6E6B4A0B43136503E097F845
:1059A0001F3187F81E31D7F80C31D3E9002302F4F8
:1059B0000053C7F8E8300023C7F8EC30D7E93A12B3
:1059C0000B46134353D0D7F80C319B6EB3F5A02F81
:1059D00033D0B3F5A02F2CD8B3F5802F2FD0B3F54B
:1059E000802F26D8B3F5403F2BD0B3F5403F20D8C9
:1059F000B3F5003F12D0B3F5003F1AD8002B22D0E8
:105A0000B3F5803F15D1D7F80C3108330121184682
:105A100001F018FA034687F81F3115E0D7F80C316A
:105A200028330121184601F0BFFA034687F81F31D9
:105A30000AE0012387F81F3106E000BF04E000BF41
:105A400002E000BF00E000BF97F81F31002B0AD131
:105A50003C4B1B6D23F4E021D7F80C319B6E394A87
:105A60000B43136503E097F81F3187F81E31D7F811
:105A70000C31D3E9002302F48043C7F8E03000235F
:105A8000C7F8E430D7E938120B46134360D0D7F893
:105A90000C31D3F8B030B3F1C04F39D0B3F1C04FAF
:105AA00032D8B3F1A04F35D0B3F1A04F2CD8B3F119
:105AB000804F31D0B3F1804F26D8B3F1405F2DD065
:105AC000B3F1405F20D8B3F1005F12D0B3F1005FB3
:105AD0001AD8002B24D0B3F1805F15D1D7F80C3140
